22:24:20.435769 IP (tos 0x0, ttl 63, id 1855, offset 0, flags [DF], proto ICMP (1), length 84)
    10.0.2.17 > 10.0.2.16: ICMP echo request, id 11301, seq 1, length 64
	0x0000:  4500 0054 073f 4000 3f01 1c4a 0a00 0211  E..T.?@.?..J....
	0x0010:  0a00 0210 0800 b3fa 2c25 0001 8401 dd65  ........,%.....e
	0x0020:  0000 0000 f1a4 0600 0000 0000 1011 1213  ................
	0x0030:  1415 1617 1819 1a1b 1c1d 1e1f 2021 2223  .............!"#
	0x0040:  2425 2627 2829 2a2b 2c2d 2e2f 3031 3233  $%&'()*+,-./0123
	0x0050:  3435 3637                                4567
22:24:20.435816 IP (tos 0x0, ttl 64, id 4996, offset 0, flags [none], proto ICMP (1), length 84)
    10.0.2.16 > 10.0.2.17: ICMP echo reply, id 11301, seq 1, length 64
	0x0000:  4500 0054 1384 0000 4001 4f05 0a00 0210  E..T....@.O.....
	0x0010:  0a00 0211 0000 bbfa 2c25 0001 8401 dd65  ........,%.....e
	0x0020:  0000 0000 f1a4 0600 0000 0000 1011 1213  ................
	0x0030:  1415 1617 1819 1a1b 1c1d 1e1f 2021 2223  .............!"#
	0x0040:  2425 2627 2829 2a2b 2c2d 2e2f 3031 3233  $%&'()*+,-./0123
	0x0050:  3435 3637                                4567
22:24:21.436145 IP (tos 0x0, ttl 63, id 1893, offset 0, flags [DF], proto ICMP (1), length 84)
    10.0.2.17 > 10.0.2.16: ICMP echo request, id 11301, seq 2, length 64
	0x0000:  4500 0054 0765 4000 3f01 1c24 0a00 0211  E..T.e@.?..$....
	0x0010:  0a00 0210 0800 39f7 2c25 0002 8501 dd65  ......9.,%.....e
	0x0020:  0000 0000 6aa7 0600 0000 0000 1011 1213  ....j...........
	0x0030:  1415 1617 1819 1a1b 1c1d 1e1f 2021 2223  .............!"#
	0x0040:  2425 2627 2829 2a2b 2c2d 2e2f 3031 3233  $%&'()*+,-./0123
	0x0050:  3435 3637                                4567
22:24:21.436170 IP (tos 0x0, ttl 64, id 5121, offset 0, flags [none], proto ICMP (1), length 84)
    10.0.2.16 > 10.0.2.17: ICMP echo reply, id 11301, seq 2, length 64
	0x0000:  4500 0054 1401 0000 4001 4e88 0a00 0210  E..T....@.N.....
	0x0010:  0a00 0211 0000 41f7 2c25 0002 8501 dd65  ......A.,%.....e
	0x0020:  0000 0000 6aa7 0600 0000 0000 1011 1213  ....j...........
	0x0030:  1415 1617 1819 1a1b 1c1d 1e1f 2021 2223  .............!"#
	0x0040:  2425 2627 2829 2a2b 2c2d 2e2f 3031 3233  $%&'()*+,-./0123
	0x0050:  3435 3637                                4567
22:24:22.468619 IP (tos 0x0, ttl 63, id 1934, offset 0, flags [DF], proto ICMP (1), length 84)
    10.0.2.17 > 10.0.2.16: ICMP echo request, id 11301, seq 3, length 64
	0x0000:  4500 0054 078e 4000 3f01 1bfb 0a00 0211  E..T..@.?.......
	0x0010:  0a00 0210 0800 5a77 2c25 0003 8601 dd65  ......Zw,%.....e
	0x0020:  0000 0000 4826 0700 0000 0000 1011 1213  ....H&..........
	0x0030:  1415 1617 1819 1a1b 1c1d 1e1f 2021 2223  .............!"#
	0x0040:  2425 2627 2829 2a2b 2c2d 2e2f 3031 3233  $%&'()*+,-./0123
	0x0050:  3435 3637                                4567
22:24:22.468637 IP (tos 0x0, ttl 64, id 5209, offset 0, flags [none], proto ICMP (1), length 84)
    10.0.2.16 > 10.0.2.17: ICMP echo reply, id 11301, seq 3, length 64
	0x0000:  4500 0054 1459 0000 4001 4e30 0a00 0210  E..T.Y..@.N0....
	0x0010:  0a00 0211 0000 6277 2c25 0003 8601 dd65  ......bw,%.....e
	0x0020:  0000 0000 4826 0700 0000 0000 1011 1213  ....H&..........
	0x0030:  1415 1617 1819 1a1b 1c1d 1e1f 2021 2223  .............!"#
	0x0040:  2425 2627 2829 2a2b 2c2d 2e2f 3031 3233  $%&'()*+,-./0123
	0x0050:  3435 3637                                4567
22:24:23.494821 IP (tos 0x0, ttl 63, id 2112, offset 0, flags [DF], proto ICMP (1), length 84)
    10.0.2.17 > 10.0.2.16: ICMP echo request, id 11301, seq 4, length 64
	0x0000:  4500 0054 0840 4000 3f01 1b49 0a00 0211  E..T.@@.?..I....
	0x0010:  0a00 0210 0800 1d10 2c25 0004 8701 dd65  ........,%.....e
	0x0020:  0000 0000 848c 0700 0000 0000 1011 1213  ................
	0x0030:  1415 1617 1819 1a1b 1c1d 1e1f 2021 2223  .............!"#
	0x0040:  2425 2627 2829 2a2b 2c2d 2e2f 3031 3233  $%&'()*+,-./0123
	0x0050:  3435 3637                                4567
22:24:23.494852 IP (tos 0x0, ttl 64, id 5283, offset 0, flags [none], proto ICMP (1), length 84)
    10.0.2.16 > 10.0.2.17: ICMP echo reply, id 1130