21:23:33.785916 IP (tos 0x0, ttl 64, id 10697, offset 0, flags [DF], proto ICMP (1), length 84)
    198.18.127.254 > 198.18.112.1: ICMP echo request, id 54751, seq 1, length 64
	0x0000:  4500 0054 29c9 4000 4001 94bb c612 7ffe  E..T).@.@.......
	0x0010:  c612 7001 0800 4246 d5df 0001 5501 dd65  ..p...BF....U..e
	0x0020:  0000 0000 b6fd 0b00 0000 0000 6f6c 6120  ............ola.
	0x0030:  4753 5820 776f 726c 6421 486f 6c61 2047  GSX.world!Hola.G
	0x0040:  5358 2077 6f72 6c64 2148 6f6c 6120 4753  SX.world!Hola.GS
	0x0050:  5820 776f                                X.wo
21:23:33.785946 IP (tos 0x0, ttl 64, id 28689, offset 0, flags [none], proto ICMP (1), length 84)
    198.18.112.1 > 198.18.127.254: ICMP echo reply, id 54751, seq 1, length 64
	0x0000:  4500 0054 7011 0000 4001 8e73 c612 7001  E..Tp...@..s..p.
	0x0010:  c612 7ffe 0000 4a46 d5df 0001 5501 dd65  ......JF....U..e
	0x0020:  0000 0000 b6fd 0b00 0000 0000 6f6c 6120  ............ola.
	0x0030:  4753 5820 776f 726c 6421 486f 6c61 2047  GSX.world!Hola.G
	0x0040:  5358 2077 6f72 6c64 2148 6f6c 6120 4753  SX.world!Hola.GS
	0x0050:  5820 776f                                X.wo
21:23:34.787871 IP (tos 0x0, ttl 64, id 10707, offset 0, flags [DF], proto ICMP (1), length 84)
    198.18.127.254 > 198.18.112.1: ICMP echo request, id 54751, seq 2, length 64
	0x0000:  4500 0054 29d3 4000 4001 94b1 c612 7ffe  E..T).@.@.......
	0x0010:  c612 7001 0800 ac3d d5df 0002 5601 dd65  ..p....=....V..e
	0x0020:  0000 0000 4b05 0c00 0000 0000 6f6c 6120  ....K.......ola.
	0x0030:  4753 5820 776f 726c 6421 486f 6c61 2047  GSX.world!Hola.G
	0x0040:  5358 2077 6f72 6c64 2148 6f6c 6120 4753  SX.world!Hola.GS
	0x0050:  5820 776f                                X.wo
21:23:34.787903 IP (tos 0x0, ttl 64, id 28756, offset 0, flags [none], proto ICMP (1), length 84)
    198.18.112.1 > 198.18.127.254: ICMP echo reply, id 54751, seq 2, length 64
	0x0000:  4500 0054 7054 0000 4001 8e30 c612 7001  E..TpT..@..0..p.
	0x0010:  c612 7ffe 0000 b43d d5df 0002 5601 dd65  .......=....V..e
	0x0020:  0000 0000 4b05 0c00 0000 0000 6f6c 6120  ....K.......ola.
	0x0030:  4753 5820 776f 726c 6421 486f 6c61 2047  GSX.world!Hola.G
	0x0040:  5358 2077 6f72 6c64 2148 6f6c 6120 4753  SX.world!Hola.GS
	0x0050:  5820 776f                                X.wo
21:23:35.811807 IP (tos 0x0, ttl 64, id 10761, offset 0, flags [DF], proto ICMP (1), length 84)
    198.18.127.254 > 198.18.112.1: ICMP echo request, id 54751, seq 3, length 64
	0x0000:  4500 0054 2a09 4000 4001 947b c612 7ffe  E..T*.@.@..{....
	0x0010:  c612 7001 0800 27df d5df 0003 5701 dd65  ..p...'.....W..e
	0x0020:  0000 0000 ce62 0c00 0000 0000 6f6c 6120  .....b......ola.
	0x0030:  4753 5820 776f 726c 6421 486f 6c61 2047  GSX.world!Hola.G
	0x0040:  5358 2077 6f72 6c64 2148 6f6c 6120 4753  SX.world!Hola.GS
	0x0050:  5820 776f                                X.wo
21:23:35.811875 IP (tos 0x0, ttl 64, id 28848, offset 0, flags [none], proto ICMP (1), length 84)
    198.18.112.1 > 198.18.127.254: ICMP echo reply, id 54751, seq 3, length 64
	0x0000:  4500 0054 70b0 0000 4001 8dd4 c612 7001  E..Tp...@.....p.
	0x0010:  c612 7ffe 0000 2fdf d5df 0003 5701 dd65  ....../.....W..e
	0x0020:  0000 0000 ce62 0c00 0000 0000 6f6c 6120  .....b......ola.
	0x0030:  4753 5820 776f 726c 6421 486f 6c61 2047  GSX.world!Hola.G
	0x0040:  5358 2077 6f72 6c64 2148 6f6c 6120 4753  SX.world!Hola.GS
	0x0050:  5820 776f                                X.wo
21:23:36.835789 IP (tos 0x0, ttl 64, id 10790, offset 0, flags [DF], proto ICMP (1), length 84)
    198.18.127.254 > 198.18.112.1: ICMP echo request, id 54751, seq 4, length 64
	0x0000:  4500 0054 2a26 4000 4001 945e c612 7ffe  E..T*&@.@..^....
	0x0010:  c612 7001 0800 7c80 d5df 0004 5801 dd65  ..p...|.....X..e
	0x0020:  0000 0000 78c0 0c00 0000 0000 6f6c 6120  ....x.......ola.
	0x0030:  4753 5820 776f 726c 6421 486f 6c61 2047  GSX.world!Hola.G
	0x0040:  5358 2077 6f72 6c64 2148 6f6c 6120 4753  SX.world!Hola.GS
	0x0050:  5820 776f                                X.wo
21:23:36.835821 IP (tos 0x0, ttl 64, id 29050, offset 0, flags [none], proto ICMP (1)
